S019000053636865696E7765726665725F4469726B2E737265633D
S11300000C9434000C943E000C943E000C943E007E
S11300100C943E000C943E000C943E000C943E0064
S11300200C943E000C943E000C943E000C943E0054
S11300300C943E000C943E000C943E000C943E0044
S11300400C943E000C943E000C943E000C943E0034
S11300500C943E000C943E000C943E000C943E0024
S11300600C943E000C943E0011241FBECFEFD8E048
S1130070DEBFCDBF0E9440000C94FA000C94000037
S1130080219A229A539AE0E8F0E080818068808384
S113009080818F7B808380818062808380818F7E5A
S11300A0808380818160808380818D7F8083E1E88B
S11300B0F0E080818F77808380818F7B8083808153
S11300C08F7E808380818860808380818B7F808322
S11300D080818D7F8083808181608083E2E8F0E08D
S11300E080818F77808380818F7B8083EFE6F0E04F
S11300F080818F7D808380818B7F808380818D7FD1
S1130100808380818E7F808310928500109284008A
S113011080EF90E090938900809388008FEF90E0C7
S113012090938B0080938A00E0EBF0E080818F77DE
S1130130808380818F7B80838081806280838081C3
S11301408F7E8083808181608083808182608083D0
S1130150E1EBF0E080818F77808380818F7B8083E7
S11301608081877F808380818B7F808380818D7F66
S11301708083808181608083E0E7F0E080818B7FF1
S1130180808380818D7F808380818E7F80831092A5
S1130190B2001092B300E4EBF0E010821082E8E8C1
S11301A0F0E0CAE8D0E02FEF30E0A4EBB0E08081CB
S11301B091818F3F910520F0118210823983288329
S11301C080819181019691838083888199810197AF
S11301D099838883808191818038910508F01C92ED
S11301E08C918F5F8C9387E893E10197F1F700C0BE
S10B01F00000DDCFF894FFCFFD
S9030000FC
