:100000000C9434000C94B5030C9446000C944600F8
:100010000C9446000C9446000C9446000C94460048
:100020000C9446000C9446000C9446000C94460038
:100030000C9446000C9446000C9446000C94460028
:100040000C9446000C9446000C9446000C94460018
:100050000C9446000C9446000C9446000C94460008
:100060000C9446000C94460011241FBECFEFD8E03C
:10007000DEBFCDBF21E0A0E0B1E001C01D92A13004
:10008000B207E1F70E949C010C94C4030C94000099
:10009000ECE7F0E080818F77808380818F7B8083A5
:1000A0008081806280838081877F808380818B7F55
:1000B000808380818D7F808380818E7F8083EAE74B
:1000C000F0E0108280818F77808380818F7B8083B6
:1000D00080818F7D808380818F7E80838081877FF8
:1000E000808380818460808380818260808380813E
:1000F00081608083ABE7B0E01C928C918F7B8C9306
:100100008C918B7F8C938C918D7F8C938C918E7F37
:100110008C93AEE7B0E01C928C918F7D8C938C9188
:100120008F7E8C938C9188608C938C9184608C935F
:100130008C9182608C938C9181608C93808180689B
:100140008083808180648083808186FDFDCF809163
:10015000790081E00895ECE7F0E09081907E8F7166
:10016000892B8083EAE7F0E080818064808380814E
:1001700086FDFDCF809179000895559A569A84B5F1
:10018000806884BD84B5806484BD84B5806284BD8C
:1001900084B5806184BD84B5816084BD84B582608E
:1001A00084BD85B58F7785BD85B58F7B85BD85B5CC
:1001B000877F85BD85B5846085BD85B58D7F85BD0F
:1001C00085B5816085BDEEE6F0E080818B7F808320
:1001D00080818D7F808380818E7F808316BC17BC59
:1001E00018BC81E00895219A229AE0E8F0E080812D
:1001F0008068808380818F7B808380818062808320
:1002000080818F7E808380818160808380818D7FEB
:100210008083E1E8F0E080818F77808380818F7B2D
:10022000808380818F7E80838081886080838081CD
:100230008B7F808380818D7F8083808181608083BC
:10024000E2E8F0E080818F77808380818F7B8083FC
:10025000EFE6F0E080818F7D808380818B7F8083DB
:1002600080818D7F808380818E7F80831092850046
:1002700010928400109289001092880010928B00D6
:1002800010928A0081E00895539AE0EBF0E08081BB
:100290008F77808380818F7B808380818062808361
:1002A00080818F7E80838081816080838081826075
:1002B0008083E1EBF0E080818F77808380818F7B8A
:1002C00080838081877F808380818B7F8083808112
:1002D0008D7F8083808181608083E0E7F0E0808192
:1002E0008B7F808380818D7F808380818E7F8083E0
:1002F0001092B2001092B3001092B40081E0089501
:10030000882311F05A9A08955A980895509A519A4C
:1003100081E008950E94BD00882369F00E94F300E7
:10032000882349F00E944401882329F00E94480054
:1003300081110E94860108952F923F924F925F9201
:100340006F927F928F929F92AF92BF92CF92DF92E5
:10035000EF92FF920F931F93CF93DF9300D000D0C3
:100360001F92CDB7DEB70E948A017894882309F4E2
:10037000E2C121E029831A82612C1B82312C2224C4
:10038000239400E010E01D8284E08C830F2EF8E8B7
:10039000AF2EB12CF02D0F2EFAE8CF2ED12CF02D50
:1003A0000F2EF4EBEF2EF12CF02D44244A940F2E57
:1003B000FFE65F2EF02D80E00E94AB00882E81E0EA
:1003C0000E94AB00982E82E00E94AB00782E83E062
:1003D0000E94AB009C81913001F5882D90E0F501E1
:1003E00091838083892D90E0F60191838083F701CA
:1003F00070828FE19EE40197F1F700C000009FE753
:10040000EAE1F6E09150E040F040E1F700C0000082
:100410008091000181118BC1CECF2C812230A1F5BA
:1004200017BC18BC8FE79AE1E6E081509040E040AD
:10043000E1F700C0000057BCFFE72AE186E0F15079
:1004400020408040E1F700C0000048BC9FE7EAE19F
:10045000F6E09150E040F040E1F700C0000047BCFA
:100460002FE78AE196E0215080409040E1F700C0FC
:10047000000058BCEFE7FAE126E0E150F0402040F0
:10048000E1F700C0000044C18C81833009F0B8C09E
:1004900017BC18BC9FE7E8E3F1E09150E040F04062
:1004A000E1F700C0000020E227BD8FE798E3E1E01C
:1004B00081509040E040E1F700C0000048BCFFE7F9
:1004C00028E381E0F15020408040E1F700C00000C7
:1004D00090E497BDEFE7F8E321E0E150F0402040E1
:1004E000E1F700C000008FED88BD9FE7E8E3F1E091
:1004F0009150E040F040E1F700C0000020E627BD49
:100500008FE798E3E1E081509040E040E1F700C0E0
:100510000000FFEBF8BD2FE788E391E02150804019
:100520009040E1F700C00000E0E8E7BDFFE728E306
:1005300081E0F15020408040E1F700C0000058BC4D
:100540009FE7E8E3F1E09150E040F040E1F700C0C0
:10055000000020EA27BD8FE798E3E1E0815090405A
:10056000E040E1F700C0000058BCFFE728E381E06D
:10057000F15020408040E1F700C0000090EC97BDB2
:10058000EFE7F8E321E0E150F0402040E1F700C060
:1005900000008FE588BD8FE798E3E1E0815090404F
:1005A000E040E1F700C0000080EE87BDFFE728E3F0
:1005B00081E0F15020408040E1F700C000008FE36F
:1005C00088BD9FE7E8E3F1E09150E040F040E1F7BB
:1005D00000C0000047BC2FE788E391E02150804035
:1005E0009040E1F700C000008FE188BDEFE7F8E33D
:1005F00021E0E150F0402040E1F700C0000088C059
:100600008C81843009F05CC0222029F09D819F5F9D
:100610009D839F3F19F0332051F003C0E1E0E9834F
:10062000212C1F5F1F3F09F478C033243394FB81D2
:10063000FF2321F00F5F0F3F09F460C06620A1F097
:100640000CC021E02A831B822224239406C081E06F
:100650008A831B82312C222423949D8191509D8377
:10066000992331F066246394EA81EE2331F001C0CE
:10067000612C115031F0F1E0FA832981222351F0ED
:1006800001C01A82015021F419826624639402C0C9
:1006900081E08983ED818E2F90E0F5019183808345
:1006A000812F90E0F60191838083F7010083FAE1C6
:1006B000FA95F1F700C080910001811116C07BCE40
:1006C0002FE78AE196E0215080409040E1F700C09A
:1006D000000080910001882309F46DCEEC81EF5F6A
:1006E000EC83E53018F01C8201C01C8210920001DE
:1006F00080E090E00E94800178945DCE6110A1CFEF
:100700001B8222242394B5CFFC81FF5FFC83EECFB4
:10071000809100018111F8CF4ECE0F5F0F3F09F499
:1007200096CF66246394312C21E02B8387CF8C8174
:100730008F5F8C83DBCF80E090E00F900F900F9065
:100740000F900F90DF91CF911F910F91FF90EF903D
:10075000DF90CF90BF90AF909F908F907F906F90E1
:100760005F904F903F902F9008951F920F920FB679
:100770000F9211248F9381E0809300018F910F904D
:0C0780000FBE0F901F901895F894FFCF4B
:00000001FF
