:100000000C9434000C942E030C9451000C94510069
:100010000C9451000C9451000C9451000C9451001C
:100020000C9451000C9451000C9451000C9451000C
:100030000C9451000C9451000C9451000C945100FC
:100040000C9451000C9451000C9451000C945100EC
:100050000C9451000C9451000C9451000C945100DC
:100060000C9451000C94510011241FBECFEFD8E026
:10007000DEBFCDBF11E0A0E0B1E0E8E8F6E002C0ED
:1000800005900D92A830B107D9F721E0A8E0B1E0C2
:1000900001C01D92A331B207E1F70E94B6020C9491
:1000A00042030C940000ECE7F0E080818F778083BE
:1000B00080818F7B80838081806280838081877F45
:1000C000808380818B7F808380818D7F808380810E
:1000D0008E7F8083EAE7F0E080818F7D808380815E
:1000E0008460808380818D7F808380818E7F808308
:1000F000ABE7B0E08C918B7F8C938C918D7F8C9350
:100100008C918E7F8C938C918F7B8C938081806877
:100110008083808180648083808186FDFDCF809193
:1001200079000895ECE7F0E09081907E8F71892B43
:100130008083EAE7F0E0808180648083808186FDAF
:10014000FDCF809179000895569A559A84B58160C3
:1001500084BD84B5826084BD85B5877F85BD85B546
:100160008E7F85BD85B58D7F85BD85B5846085BD58
:1001700084B5806884BD84B58F7B84BD84B580627E
:1001800084BD84B58F7E84BD85B58F7785BD85B5EB
:100190008F7B85BDEEE6F0E080818B7F8083808160
:1001A0008D7F808380818E7F808316BC8FEF87BD9B
:1001B00088BD0895219A229AA0E8B0E08C918160D0
:1001C0008C938C918D7F8C93E1E8F0E08081886046
:1001D000808380818F7E808380818E7F80838081F9
:1001E0008D7F80838081846080838C9180688C93F4
:1001F0008C918F7B8C938C9180628C938C918F7E71
:100200008C9380818F77808380818F7B8083E2E8ED
:10021000F0E080818F77808380818F7B8083EFE621
:10022000F0E080818F7D808380818B7F80838081DF
:100230008D7F808380818E7F8083109285001092D5
:1002400084008FEF90E090938900809388009093D2
:100250008B0080938A000895539AA0EBB0E08C91B4
:1002600081608C938C9182608C93E1EBF0E08081D3
:10027000877F808380818E7F80838081826080837E
:100280008081846080838C918F778C938C918F7B1D
:100290008C938C9180628C938C918F7E8C938081D7
:1002A0008F77808380818F7B8083E0E7F0E080819F
:1002B0008B7F808380818D7F808380818E7F808310
:1002C0001092B2008FEF8093B40008955298E89A8C
:1002D000E9E6F0E080818260808380818E7F808388
:1002E000E9988081877F808380818B7F8083A8E6E7
:1002F000B0E08C918E7F8C93EBE6F0E080818E7F76
:10030000808380818D7F808380818B7F80838081CB
:10031000877F808380818F7E808380818F7D8083B3
:1003200080818F7B808380818F7780838C918D7F8C
:100330008C93ECE6F0E080818E7F808380818D7FDE
:10034000808380818B7F80838081877F8083808191
:100350008F7E808380818F7D808380818F7B80836F
:100360008C918B7F8C93EDE6F0E080818E7F808393
:1003700080818D7F808380818B7F80838081877F58
:10038000808380818F7E808380818F7D8083808148
:100390008F7B808380818F77808308950E946601A0
:1003A0000E94A4000E94DA000E942C010E945300C7
:1003B00008958FEF87BD88BD2FEF30E0309389001F
:1003C0002093880030938B0020938A008093B400A0
:1003D000089580E00E9492008093100181E00E94C5
:1003E000920080930F0182E00E94920080930E01A0
:1003F00083E00E949200809307010895809102019A
:10040000882389F080910601815019F080930601BC
:100410000AC01092060181E080930B011092020144
:100420008093010104C080910B01882389F08091A1
:100430000501815019F0809305010AC01092050151
:1004400081E080930A0110920B018093090104C09E
:1004500080910A018823A9F080910401815019F04C
:10046000809304010EC01092040181E08093020188
:1004700010920A018093080180910901811105C041
:1004800015C080910901882369F0809106018F5F72
:10049000809306018F3F31F41092090181E080932F
:1004A000080104C080910801882369F0809105014A
:1004B0008F5F809305018F3F31F41092080181E036
:1004C0008093010104C080910101882361F0809133
:1004D00004018F5F809304018F3F29F41092010182
:1004E00081E0809309018091060190E0909389005A
:1004F000809388008091050190E090938B00809319
:100500008A00809104018093B400089580910D01C8
:10051000833040F110920D0180910001882371F029
:10052000809103018150813618F08093030114C03B
:1005300080E680930301109200010EC080910301B8
:100540008F5F8F3E18F48093030106C08FEE809377
:10055000030181E0809300018091030187BD87B58D
:1005600088BD08958F5F80930D0108950E94CE018C
:1005700078940E94D901DD24D3940F2EF8E8EF2E51
:10058000F12CF02D0AE810E0C4EBD0E080911201CC
:1005900081110BC00E9486020E94FE018FE19EE441
:1005A0000197F1F700C0000041C0813059F40E946A
:1005B00086020E94FE01EFE8F1E03197F1F700C0FA
:1005C000000034C08230D9F48091070187BD87B51F
:1005D00088BD8091100190E0F70191838083809124
:1005E0000F0190E0F8019183808380910E01888350
:1005F0008FE19EE40197F1F700C0000017C083303F
:1006000071F48091070187BD87B588BD0E94FE0106
:10061000EFE1FEE43197F1F700C0000007C010924F
:10062000120180911101811116C012C08091110137
:10063000882371F0809112018F5F843018F48093C9
:10064000120102C0109212011092110110920C01BD
:100650000E94E9019BCFD0921201F6CF1F920F9218
:100660000FB60F9211248F9381E080931101809136
:100670000C018F5F80930C018F910F900FBE0F9034
:080680001F901895F894FFCFBC
:08068800010101FFFFFFFF204B
:00000001FF
